:0300000002010FEB
:0C010F00787FE4F6D8FD758135020156BA
:0C03510002340000023200000230000004
:10045C00E4F530F5317580F0120545E5356401455C
:10046C00347011758911D2AF7BA3FA7DFFFC7F012B
:0C047C00FE120563752E00752F0C80F831
:0C000E00C2867F327E00120527D28622B7
:10054500E5354534701720B2F77F14FE12052720D4
:0E055500B2EE75340075350112000E80E322FF
:03001B000202FAE4
:1002FA00C0E0C0F0C0D075D000C000C004C005C0C6
:10030A0006C007758DFF758BA3C3E531952FE52EC2
:10031A006480F8E5306480985004D2968002C296D0
:10032A000531E53170020530AE30FF7C007D2812C0
:10033A00019B8C308D31D007D006D005D004D00077
:07034A00D0D0D0F0D0E0326A
:10035D0002100000020C0000021400000208000050
:0C036D0002120001020E0000020A000053
:0604B2007D14FC7F14FE26
:1004B800EF4E6011ED4C600D8E108F118C0C8D0D70
:1004C800D284D28522EF4E7008ED4C7004C284C2EB
:0204D80085227B
:0905DA00D280C281D282C28322C8
:0905E300C280D281C282D28322BF
:0905EC00C280D281D282C28322B6
:0905F500D280C281C282D28322AD
:1004FF00EF4E70061204B20205DAEF64034E700677
:10050F001204B20205E3EF64044E7007FDFCFFFE18
:04051F001204B822E8
:1003F300EF4E70061204B20205DAEF64014E700686
:100403001204B20205ECEF64024E70061204B2024B
:1004130005F5EF64034E70061204B20205E3EF64C0
:0C042300044E7007FDFCFFFE1204B8221E
:1004DA000FBF00010EE51345126019D3EF9DEC64BE
:1004EA0080F8EE64809850028000C3EF9414EE64A2
:0504FA00809480222225
:03000B000202925C
:10029200C0E0C0D075D000C000C001C002C003C021
:1002A20004C005C006C007C28C758CFC758A187B19
:1002B200007A00790EAD11AC10AF15AE141204DA4B
:1002C2007B007A00790AAD0DAC0CAF09AE081204BE
:1002D200DAE50E450F24FF9284E50A450B24FF92CE
:1002E20085D28CD007D006D005D004D003D002D05E
:0802F20001D000D0D0D0E032B1
:0F05B600EE700BEF6006147005D2AF22C2AF22B9
:10056300EE7018EF14600C0470118D8C8B8AD28C92
:0C057300D2A9228D8D8B8BD28ED2AB22B0
:10057F00EE700FEF146007047008D28CD2A9D28EE0
:03058F00D2AB22CA
:10037900022A000002280000022C000402260002C2
:0A05D000C3EE6480948050012222E3
:1005920075240075250C851A2C851B2D852C268526
:0305A2002D2722E0
:10038900021C000002180000021E000002160000F4
:0C0399000222000002200000021A0000F6
:040523007FE87E03EC
:10052700E4FDFCC3ED9FEC9E5013E4FB0BBBC8FC42
:0D053700E4FB0BBB66FC0DBD00010C80E673
:010544002294
:1003A600851C18851D1920A402801E20A50474FF33
:1003B600801820A607751CFF751DFE2220A707754D
:1003C6001CFF751DFD2220A306E4F51CF51D222049
:1003D600A207751C00751D012220A107751C00755A
:0D03E6001D022220A006751C00751D0322BB
:10048800E51D451C7003FEFF22D3E51D9400E51C05
:100498006480948040028009C3E51C648094805085
:0A04A80004E4FEFF227E007F012223
:0100030022DA
:0100040022D9
:10001E00E51F451E703930A40320A31130A506300C
:10002E00A60320A708751600751701801B30A406BD
:10003E0030A30302010E30A20930A10630A0030244
:10004E00010E752200752301751E00751F0122E534
:10005E001F6401451E702E12052330A40320A31920
:10006E0030A50F30A60C30A70930A20630A1032010
:10007E00A007751E00751F0222752000752101E470
:10008E00F51EF51F22E51F6402451E700A12052398
:10009E00751E00751F0322E51F6403451E7037E5AC
:1000AE001764014516701130A40320A35330A21F0C
:1000BE0030A11C20A04A8017E52364014522704020
:1000CE0030A40320A33A30A50630A60320A731752D
:1000DE001E00751F0422E51F6404451E700A1205DA
:1000EE0023751E00751F0522E51F6405451E701041
:1000FE00120523E4F51EF51FF516F517F522F52367
:01010E0022CE
:10022600E51F6401451E70028050E51F6402451EED
:100236007014E5176401451670028024E5236401F5
:10024600452270478026E51F6403451E70028035EF
:10025600E51F6404451E701AE5176401451670040F
:1002660074FF8016E52364014522701FF51A751B7D
:100276000122E51F6405451E7005F51AF51B22E5EA
:0C0286001F451E7006751A00751B032230
:1005A500E521640145207008120523E4F520F521B5
:0105B5002223
:10042F00E52164014520700FE5176401451670073B
:10043F00751AFF751BFD22E52164014520700DE53E
:0D044F0023640145227005F51A751B032278
:0B05C5001203A61200038E1A8F1B22E7
:10011B0002045CE493A3F8E493A34003F68001F29A
:10012B0008DFF48029E493A3F85407240CC8C333E5
:10013B00C4540F4420C8834004F456800146F6DFB4
:10014B00E4800B0102040810204080900351E47EF0
:10015B00019360BCA3FF543F30E509541FFEE493A9
:10016B00A360010ECF54C025E060A840B8E493A370
:10017B00FAE493A3F8E493A3C8C582C8CAC583CA9B
:10018B00F0A3C8C582C8CAC583CADFE9DEE780BE53
:0103A5000057
:10019B00C2D5EC30E709B2D5E4C39DFDE49CFCEE7F
:1001AB0030E715B2D5E4C39FFFE49EFE1201D1C325
:1001BB00E49DFDE49CFC80031201D130D507C3E420
:0601CB009FFFE49EFE22EE
:1001D100BC000BBE0029EF8DF084FFADF022E4CC12
:1001E100F875F008EF2FFFEE33FEEC33FCEE9DECDB
:1001F100984005FCEE9DFE0FD5F0E9E4CEFD22ED21
:10020100F8F5F0EE8420D21CFEADF075F008EF2F6A
:10021100FFED33FD4007985006D5F0F222C398FD5B
:050221000FD5F0EA22F8
:00000001FF
